:100000000C942A000C94EC020C9447000C944700CA
:100010000C9447000C9447000C9447000C94470044
:100020000C9447000C9447000C947D030C944700FB
:100030000C9447000C9447000C9447000C94470024
:100040000C9447000C9447000C9447000C94470014
:100050000C94470011241FBECFE5D8E0DEBFCDBF12
:1000600010E0A0E6B0E0E6E5F9E002C005900D92F0
:10007000A036B107D9F720E0A0E6B0E001C01D929C
:10008000AF36B207E1F70E9449000C94A9040C9422
:1000900000002FEF83ED90E3215080409040E1F786
:1000A00000C000000E942F010E94750064E181E001
:1000B0000E949000C82F4C2F64E181E00E947800DC
:1000C0006C2F70E080E090E00E9402040E946A01C0
:1000D000CF5F2FEF89E698E1215080409040E1F713
:1000E00000C000000E94D601E6CF0E9413030895CD
:1000F0001F93CF93DF93182FD62FC42F0E9419037D
:10010000812F80650E943C038D2F0E9459038C2F04
:100110000E9459030E942703DF91CF911F910895F8
:10012000CF93DF93C82FD62F0E941903C0658C2F61
:100130000E943C038D2F0E9459030E942E038C2F96
:100140000E9449030E946803C82F0E9427038C2F36
:10015000DF91CF910895CF93C82F61E085E10E9490
:10016000630260E086E10E9463028BB39C2F907F64
:100170008F70892B8BBB61E087E10E9463028FE95E
:100180009FE00197F1F700C0000060E087E10E9466
:1001900063028FE19EE40197F1F700C0000020E1C7
:1001A000C29FC00111249BB39F70892B8BBB61E060
:1001B00087E10E9463028FE99FE00197F1F700C099
:1001C000000060E087E10E9463028FE19EE40197F6
:1001D000F1F700C00000CF910895CF93C82F60E0E1
:1001E00085E10E94630260E086E10E9463028BB3B6
:1001F0009C2F907F8F70892B8BBB61E087E10E94E1
:1002000063028FE99FE00197F1F700C0000060E012
:1002100087E10E9463028FE19EE40197F1F700C03D
:10022000000020E1C29FC00111249BB39F70892B65
:100230008BBB61E087E10E9463028FE99FE0019739
:10024000F1F700C0000060E087E10E9463028FE1E7
:100250009EE40197F1F700C00000CF91089561E09E
:1002600085E10E94DA0161E087E10E94DA0161E044
:1002700086E10E94DA0161E08EE00E94DA0161E02D
:100280008FE00E94DA0161E080E10E94DA0161E022
:1002900081E10E94DA012FEF89E698E12150804048
:1002A0009040E1F700C0000083E30E94ED0082E38C
:1002B0000E94ED0088E20E94ED008CE00E94ED00BB
:1002C00082E00E94ED0086E00E94ED0081E00E9445
:1002D000ED000895CF92DF92EF92FF921F93CF939C
:1002E000DF93CDB7DEB72A970FB6F894DEBF0FBE07
:1002F000CDBF0E94CC036B017C01FE0131968AE0E8
:10030000DF011D928A95E9F7C114D104E104F104DB
:1003100021F480E30E94AB000DC0FF205CF48DE26D
:100320000E94AB00F094E094D094C094C11CD11C06
:10033000E11CF11C10E016C0C701B6012AE030E054
:1003400040E050E00E948A04E1E0F0E0EC0FFD1F85
:10035000E10FF11D17FDFA9560831F5FC22ED32EAA
:10036000E42EF52EC114D104E104F10429F7115053
:100370000DC0E1E0F0E0EC0FFD1FE10FF11D17FDF6
:10038000FA958081805D0E94AB00115011238CF79B
:100390002A960FB6F894DEBF0FBECDBFDF91CF9186
:1003A0001F91FF90EF90DF90CF90089581E00E9421
:1003B000ED0008959DEC899F912D1124292F2695FC
:1003C00026952695220F322F330F330F230F821BD2
:1003D000282F969596959695662319F06130E1F150
:1003E00008959230A9F018F4913031F008959330C7
:1003F000D9F0943029F108953AB381E090E002C039
:10040000880F991F2A95E2F7809583238ABB089568
:1004100037B381E090E002C0880F991F2A95E2F778
:100420008095832387BB089534B381E090E002C0B8
:10043000880F991F2A95E2F78095832384BB08953E
:100440003FB781E090E002C0880F991F2A95E2F73C
:10045000809583238FBF08959230A1F018F49130D6
:1004600031F008959330C9F0943011F108953AB302
:1004700081E090E002C0880F991F2A95E2F7832B54
:100480008ABB089537B381E090E002C0880F991FBE
:100490002A95E2F7832B87BB089534B381E090E07F
:1004A00002C0880F991F2A95E2F7832B84BB089519
:1004B0003FB781E090E002C0880F991F2A95E2F7CC
:1004C000832B8FBF08959DEC899F912D1124292F97
:1004D000269526952695220F322F330F330F230FA3
:1004E000821B282F969596959695662319F0613074
:1004F000E1F108959230A9F018F4913031F00895A7
:100500009330D9F0943029F108953BB381E090E025
:1005100002C0880F991F2A95E2F7809583238BBB31
:10052000089538B381E090E002C0880F991F2A95A2
:10053000E2F78095832388BB089535B381E090E08E
:1005400002C0880F991F2A95E2F78095832385BB07
:10055000089532B381E090E002C0880F991F2A9578
:10056000E2F78095832382BB08959230A1F018F4BE
:10057000913031F008959330C9F0943011F108951D
:100580003BB381E090E002C0880F991F2A95E2F703
:10059000832B8BBB089538B381E090E002C0880FB5
:1005A000991F2A95E2F7832B88BB089535B381E024
:1005B00090E002C0880F991F2A95E2F7832B85BB34
:1005C000089532B381E090E002C0880F991F2A9508
:1005D000E2F7832B82BB08951F920F920FB60F9202
:1005E00011242F933F934F935F936F937F938F9338
:1005F0009F93AF93BF93EF93FF93E0916400F091CB
:1006000065000995FF91EF91BF91AF919F918F91F7
:100610007F916F915F914F913F912F910F900FBEFE
:100620000F901F9018958CE080B986B7846086BFC4
:10063000089586B7806286BF86B7806886BF06B693
:1006400007FEFDCF81B1887F8830E1F7089586B736
:10065000806186BF86B7806886BF089586B780624E
:1006600086BF86B7806886BF06B607FEFDCF81B11C
:10067000887F8031E1F70895880F83B986B7806855
:1006800086BF06B607FEFDCF81B1887F8831E1F7CE
:10069000089590E0880F991F816083B986B78068BC
:1006A00086BF06B607FEFDCF81B1887F8034E1F7B3
:1006B000089583B986B78F7D86BF86B7806886BF69
:1006C00006B607FEFDCF81B1887F8832E1F7089535
:1006D00086B78F7D86BF86B78F7E86BF86B78064DC
:1006E00086BF86B7806886BF06B607FEFDCF81B19C
:1006F000887F8035E1F783B108951F920F920FB67E
:100700000F9211242F933F934F935F936F937F9397
:100710008F939F93AF93BF93EF93FF93809160006C
:1007200090916100A0916200B09163000196A11DBB
:10073000B11D8093600090936100A0936200B0931C
:10074000630040916600509167006091680070916D
:10075000690084179507A607B70769F4E09164005C
:10076000F09165000995109260001092610010925E
:10077000620010926300FF91EF91BF91AF919F9142
:100780008F917F916F915F914F913F912F910F903A
:100790000FBE0F901F9018950E94D3036894B1115B
:1007A0000C94620408950E94470488F09F5798F0C3
:1007B000B92F9927B751B0F0E1F0660F771F881F66
:1007C000991F1AF0BA95C9F714C0B13091F00E9480
:1007D0006104B1E008950C946104672F782F882795
:1007E000B85F39F0B93FCCF3869577956795B395A7
:1007F000D9F73EF490958095709561957F4F8F4F16
:100800009F4F0895E89409C097FB3EF4909580951A
:10081000709561957F4F8F4F9F4F9923A9F0F92FC6
:1008200096E9BB279395F695879577956795B79544
:10083000F111F8CFFAF4BB0F11F460FF1BC06F5F2A
:100840007F4F8F4F9F4F16C0882311F096E911C03C
:10085000772321F09EE8872F762F05C0662371F05D
:1008600096E8862F70E060E02AF09A95660F771F71
:10087000881FDAF7880F9695879597F9089557FDA1
:100880009058440F551F59F05F3F71F04795880FFE
:1008900097FB991F61F09F3F79F087950895121695
:1008A00013061406551FF2CF4695F1DF08C0161641
:1008B00017061806991FF1CF8695710561050894F2
:1008C0000895E894BB2766277727CB0197F9089509
:1008D000A1E21A2EAA1BBB1BFD010DC0AA1FBB1F44
:1008E000EE1FFF1FA217B307E407F50720F0A21BB6
:1008F000B30BE40BF50B661F771F881F991F1A9423
:1009000069F760957095809590959B01AC01BD014C
:10091000CF010895052E97FB1EF400940E94A104B8
:1009200057FD07D00E94680407FC03D04EF40C94D6
:10093000A10450954095309521953F4F4F4F5F4F03
:10094000089590958095709561957F4F8F4F9F4F3B
:060950000895F894FFCFAA
:00000001FF
